{
  "contractName": "League",
  "abi": [
    {
      "constant": true,
      "inputs": [],
      "name": "name",
      "outputs": [
        {
          "name": "",
          "type": "string"
        }
      ],
      "payable": false,
      "stateMutability": "view",
      "type": "function"
    },
    {
      "constant": false,
      "inputs": [
        {
          "name": "_teamName",
          "type": "string"
        }
      ],
      "name": "joinLeague",
      "outputs": [
        {
          "name": "",
          "type": "bool"
        }
      ],
      "payable": true,
      "stateMutability": "payable",
      "type": "function"
    },
    {
      "constant": false,
      "inputs": [
        {
          "name": "_playerId",
          "type": "uint256"
        }
      ],
      "name": "draftPlayer",
      "outputs": [
        {
          "name": "",
          "type": "bool"
        }
      ],
      "payable": false,
      "stateMutability": "nonpayable",
      "type": "function"
    },
    {
      "constant": true,
      "inputs": [],
      "name": "leagueSize",
      "outputs": [
        {
          "name": "",
          "type": "uint256"
        }
      ],
      "payable": false,
      "stateMutability": "view",
      "type": "function"
    },
    {
      "constant": true,
      "inputs": [],
      "name": "buyIn",
      "outputs": [
        {
          "name": "",
          "type": "uint256"
        }
      ],
      "payable": false,
      "stateMutability": "view",
      "type": "function"
    },
    {
      "constant": true,
      "inputs": [],
      "name": "draftRound",
      "outputs": [
        {
          "name": "",
          "type": "uint256"
        }
      ],
      "payable": false,
      "stateMutability": "view",
      "type": "function"
    },
    {
      "constant": false,
      "inputs": [
        {
          "name": "_unixTimestamp",
          "type": "uint256"
        }
      ],
      "name": "changeDraftTime",
      "outputs": [],
      "payable": false,
      "stateMutability": "nonpayable",
      "type": "function"
    },
    {
      "constant": true,
      "inputs": [],
      "name": "jackpotStyle",
      "outputs": [
        {
          "name": "",
          "type": "string"
        }
      ],
      "payable": false,
      "stateMutability": "view",
      "type": "function"
    },
    {
      "constant": true,
      "inputs": [],
      "name": "draftTime",
      "outputs": [
        {
          "name": "",
          "type": "uint256"
        }
      ],
      "payable": false,
      "stateMutability": "view",
      "type": "function"
    },
    {
      "constant": true,
      "inputs": [],
      "name": "teamCount",
      "outputs": [
        {
          "name": "",
          "type": "uint256"
        }
      ],
      "payable": false,
      "stateMutability": "view",
      "type": "function"
    },
    {
      "constant": true,
      "inputs": [],
      "name": "owner",
      "outputs": [
        {
          "name": "",
          "type": "address"
        }
      ],
      "payable": false,
      "stateMutability": "view",
      "type": "function"
    },
    {
      "constant": true,
      "inputs": [],
      "name": "draftPick",
      "outputs": [
        {
          "name": "",
          "type": "uint256"
        }
      ],
      "payable": false,
      "stateMutability": "view",
      "type": "function"
    },
    {
      "constant": false,
      "inputs": [
        {
          "name": "_team",
          "type": "address"
        }
      ],
      "name": "usersPick",
      "outputs": [
        {
          "name": "",
          "type": "bool"
        }
      ],
      "payable": false,
      "stateMutability": "nonpayable",
      "type": "function"
    },
    {
      "constant": true,
      "inputs": [],
      "name": "allPlayers",
      "outputs": [
        {
          "name": "",
          "type": "address"
        }
      ],
      "payable": false,
      "stateMutability": "view",
      "type": "function"
    },
    {
      "constant": false,
      "inputs": [],
      "name": "getPlayerUnivers",
      "outputs": [
        {
          "name": "",
          "type": "address"
        }
      ],
      "payable": false,
      "stateMutability": "nonpayable",
      "type": "function"
    },
    {
      "constant": true,
      "inputs": [],
      "name": "draftStyle",
      "outputs": [
        {
          "name": "",
          "type": "string"
        }
      ],
      "payable": false,
      "stateMutability": "view",
      "type": "function"
    },
    {
      "constant": false,
      "inputs": [
        {
          "name": "newOwner",
          "type": "address"
        }
      ],
      "name": "transferOwnership",
      "outputs": [],
      "payable": false,
      "stateMutability": "nonpayable",
      "type": "function"
    },
    {
      "inputs": [
        {
          "name": "_name",
          "type": "string"
        },
        {
          "name": "_leagueSize",
          "type": "uint256"
        },
        {
          "name": "_buyIn",
          "type": "uint256"
        },
        {
          "name": "_jackpotStyle",
          "type": "string"
        },
        {
          "name": "_draftTime",
          "type": "uint256"
        },
        {
          "name": "_draftStyle",
          "type": "string"
        },
        {
          "name": "_playerUniverse",
          "type": "address"
        }
      ],
      "payable": false,
      "stateMutability": "nonpayable",
      "type": "constructor"
    },
    {
      "payable": true,
      "stateMutability": "payable",
      "type": "fallback"
    },
    {
      "anonymous": false,
      "inputs": [
        {
          "indexed": true,
          "name": "previousOwner",
          "type": "address"
        },
        {
          "indexed": true,
          "name": "newOwner",
          "type": "address"
        }
      ],
      "name": "OwnershipTransferred",
      "type": "event"
    }
  ],
  "bytecode": "0x60606040526001600a556001600b556001600c5534156200001f57600080fd5b604051620010593803806200105983398101604052808051820191906020018051906020019091908051906020019091908051820191906020018051906020019091908051820191906020018051906020019091905050336000806101000a81548173ffffffffffffffffffffffffffffffffffffffff021916908373ffffffffffffffffffffffffffffffffffffffff1602179055508660019080519060200190620000ce92919062000164565b5085600281905550846003819055508360049080519060200190620000f592919062000164565b508260058190555081600690805190602001906200011592919062000164565b5080600d60006101000a81548173ffffffffffffffffffffffffffffffffffffffff021916908373ffffffffffffffffffffffffffffffffffffffff1602179055505050505050505062000213565b828054600181600116156101000203166002900490600052602060002090601f016020900481019282601f10620001a757805160ff1916838001178555620001d8565b82800160010185558215620001d8579182015b82811115620001d7578251825591602001919060010190620001ba565b5b509050620001e79190620001eb565b5090565b6200021091905b808211156200020c576000816000905550600101620001f2565b5090565b90565b610e3680620002236000396000f3006060604052600436106100f1576000357c0100000000000000000000000000000000000000000000000000000000900463ffffffff16806306fdde03146101ca578063073ab9cd14610258578063281dc690146102c25780633de150e2146102fd57806353aab43414610326578063666ff3a61461034f5780636b9b8e221461037857806374f7c0231461039b5780638c46794a146104295780638caa0083146104525780638da5cb5b1461047b57806397a545dd146104d0578063a72a2518146104f9578063b0ec80941461054a578063c40ba8ca1461059f578063ccbfe697146105f4578063f2fde38b14610682575b600254600c5410151561010357600080fd5b61010b6106bb565b151561011657600080fd5b6000600760003373ffffffffffffffffffffffffffffffffffffffff1673ffffffffffffffffffffffffffffffffffffffff16815260200190815260200160002080546001816001161561010002031660029004905014151561017857600080fd5b600354341015151561018957600080fd5b6101c76040805190810160405280600781526020017f44656661756c74000000000000000000000000000000000000000000000000008152506106cb565b50005b34156101d557600080fd5b6101dd6107e4565b6040518080602001828103825283818151815260200191508051906020019080838360005b8381101561021d578082015181840152602081019050610202565b50505050905090810190601f16801561024a5780820380516001836020036101000a031916815260200191505b509250505060405180910390f35b6102a8600480803590602001908201803590602001908080601f016020809104026020016040519081016040528093929190818152602001838380828437820191505050505050919050506106cb565b604051808215151515815260200191505060405180910390f35b34156102cd57600080fd5b6102e36004808035906020019091905050610882565b604051808215151515815260200191505060405180910390f35b341561030857600080fd5b61031061094a565b6040518082815260200191505060405180910390f35b341561033157600080fd5b610339610950565b6040518082815260200191505060405180910390f35b341561035a57600080fd5b610362610956565b6040518082815260200191505060405180910390f35b341561038357600080fd5b610399600480803590602001909190505061095c565b005b34156103a657600080fd5b6103ae6109d4565b6040518080602001828103825283818151815260200191508051906020019080838360005b838110156103ee5780820151818401526020810190506103d3565b50505050905090810190601f16801561041b5780820380516001836020036101000a031916815260200191505b509250505060405180910390f35b341561043457600080fd5b61043c610a72565b6040518082815260200191505060405180910390f35b341561045d57600080fd5b610465610a78565b6040518082815260200191505060405180910390f35b341561048657600080fd5b61048e610a7e565b604051808273ffffffffffffffffffffffffffffffffffffffff1673ffffffffffffffffffffffffffffffffffffffff16815260200191505060405180910390f35b34156104db57600080fd5b6104e3610aa3565b6040518082815260200191505060405180910390f35b341561050457600080fd5b610530600480803573ffffffffffffffffffffffffffffffffffffffff16906020019091905050610aa9565b604051808215151515815260200191505060405180910390f35b341561055557600080fd5b61055d610b16565b604051808273ffffffffffffffffffffffffffffffffffffffff1673ffffffffffffffffffffffffffffffffffffffff16815260200191505060405180910390f35b34156105aa57600080fd5b6105b2610b3c565b604051808273ffffffffffffffffffffffffffffffffffffffff1673ffffffffffffffffffffffffffffffffffffffff16815260200191505060405180910390f35b34156105ff57600080fd5b610607610b66565b6040518080602001828103825283818151815260200191508051906020019080838360005b8381101561064757808201518184015260208101905061062c565b50505050905090810190601f1680156106745780820380516001836020036101000a031916815260200191505b509250505060405180910390f35b341561068d57600080fd5b6106b9600480803573ffffffffffffffffffffffffffffffffffffffff16906020019091905050610c04565b005b6000610e10420160055411905090565b6000600254600c541015156106df57600080fd5b6106e76106bb565b15156106f257600080fd5b6000600760003373ffffffffffffffffffffffffffffffffffffffff1673ffffffffffffffffffffffffffffffffffffffff16815260200190815260200160002080546001816001161561010002031660029004905014151561075457600080fd5b600082511415151561076557600080fd5b600354341015151561077657600080fd5b81600760003373ffffffffffffffffffffffffffffffffffffffff1673ffffffffffffffffffffffffffffffffffffffff16815260200190815260200160002090805190602001906107c9929190610d65565b506001600c6000828254019250508190555060019050919050565b60018054600181600116156101000203166002900480601f01602080910402602001604051908101604052809291908181526020018280546001816001161561010002031660029004801561087a5780601f1061084f5761010080835404028352916020019161087a565b820191906000526020600020905b81548152906001019060200180831161085d57829003601f168201915b505050505081565b600061088c610d59565b151561089757600080fd5b6008600083815260200190815260200160002060009054906101000a900460ff161515156108c457600080fd5b6108cd33610aa9565b15156108d857600080fd5b60016008600084815260200190815260200160002060006101000a81548160ff021916908315150217905550600c54600b5410151561092f576001600a600082825401925050819055506001600b81905550610941565b6001600b600082825401925050819055505b60019050919050565b60025481565b60035481565b600a5481565b6000809054906101000a900473ffffffffffffffffffffffffffffffffffffffff1673ffffffffffffffffffffffffffffffffffffffff163373ffffffffffffffffffffffffffffffffffffffff161415156109b757600080fd5b6109bf6106bb565b15156109ca57600080fd5b8060058190555050565b60048054600181600116156101000203166002900480601f016020809104026020016040519081016040528092919081815260200182805460018160011615610100020316600290048015610a6a5780601f10610a3f57610100808354040283529160200191610a6a565b820191906000526020600020905b815481529060010190602001808311610a4d57829003601f168201915b505050505081565b60055481565b600c5481565b6000809054906101000a900473ffffffffffffffffffffffffffffffffffffffff1681565b600b5481565b60008173ffffffffffffffffffffffffffffffffffffffff1660096000600b54815260200190815260200160002060009054906101000a900473ffffffffffffffffffffffffffffffffffffffff1673ffffffffffffffffffffffffffffffffffffffff16149050919050565b600d60009054906101000a900473ffffffffffffffffffffffffffffffffffffffff1681565b6000600d60009054906101000a900473ffffffffffffffffffffffffffffffffffffffff16905090565b60068054600181600116156101000203166002900480601f016020809104026020016040519081016040528092919081815260200182805460018160011615610100020316600290048015610bfc5780601f10610bd157610100808354040283529160200191610bfc565b820191906000526020600020905b815481529060010190602001808311610bdf57829003601f168201915b505050505081565b6000809054906101000a900473ffffffffffffffffffffffffffffffffffffffff1673ffffffffffffffffffffffffffffffffffffffff163373ffffffffffffffffffffffffffffffffffffffff16141515610c5f57600080fd5b600073ffffffffffffffffffffffffffffffffffffffff168173ffffffffffffffffffffffffffffffffffffffff1614151515610c9b57600080fd5b8073ffffffffffffffffffffffffffffffffffffffff166000809054906101000a900473ffffffffffffffffffffffffffffffffffffffff1673ffffffffffffffffffffffffffffffffffffffff167f8be0079c531659141344cd1fd0a4f28419497f9722a3daafe3b4186f6b6457e060405160405180910390a3806000806101000a81548173ffffffffffffffffffffffffffffffffffffffff021916908373ffffffffffffffffffffffffffffffffffffffff16021790555050565b60006005544211905090565b828054600181600116156101000203166002900490600052602060002090601f016020900481019282601f10610da657805160ff1916838001178555610dd4565b82800160010185558215610dd4579182015b82811115610dd3578251825591602001919060010190610db8565b5b509050610de19190610de5565b5090565b610e0791905b80821115610e03576000816000905550600101610deb565b5090565b905600a165627a7a72305820eb88a24ad7f7b49c9a35700c4137348cfd6a18d5d18744d68b4f307b54245b8d0029",
  "source": "pragma solidity ^0.4.18;\nimport '../installed_contracts/zeppelin/contracts/ownership/Ownable.sol';\nimport './PlayerUniverse.sol';\n\n\ncontract League is Ownable{\n\n\tstring public name;\n\tuint public leagueSize;\n\tuint public buyIn;\n\tstring public jackpotStyle;\n\tuint public draftTime;\n\tstring public draftStyle;\n\tmapping (address => string) teams;\n\tmapping (uint => bool) draftedPlayers;\n\tmapping (uint => address) draftOrder;\n\tuint public draftRound = 1;\n\tuint public draftPick = 1;\n\tuint public teamCount = 1;\n\tPlayerUniverse public allPlayers;\n\n\tfunction League(string _name, \n\t\tuint _leagueSize, \n\t\tuint _buyIn, \n\t\tstring _jackpotStyle, \n\t\tuint _draftTime, \n\t\tstring _draftStyle,\n\t\taddress _playerUniverse){\n\n\t\tname = _name;\n\t\tleagueSize = _leagueSize;\n\t\tbuyIn = _buyIn;\n\t\tjackpotStyle = _jackpotStyle;\n\t\tdraftTime = _draftTime;\n\t\tdraftStyle = _draftStyle;\n\t\tallPlayers = PlayerUniverse(_playerUniverse);\n\n\t}\n\n\tfunction getPlayerUnivers() public returns (address) {\n\t\treturn allPlayers;\n\t}\n\t//returns is the draft is within 1 hour or not\n\tfunction draftNotStarted() \n\tprivate \n\treturns (bool) \n\t{\n\n\t\treturn (draftTime > (now + 1 hours));\n\t}\n\n\tfunction draftStarted() \n\tprivate \n\treturns (bool) \n\t{\n\n\t\treturn (now > draftTime);\n\t}\n\n\tfunction usersPick(address _team) public returns (bool) {\n\t\treturn (draftOrder[draftPick] == _team);\n\t}\n\n\t//Takes a unix timestamp, sets draftTime \n\tfunction changeDraftTime(uint _unixTimestamp)\n\tpublic\n\tonlyOwner\n\t{\n\t\trequire(draftNotStarted());\n\t\tdraftTime = _unixTimestamp;\n\n\t} \n\n\tfunction joinLeague(string _teamName) public payable returns (bool) {\n\t\trequire (teamCount < leagueSize);\n\t\trequire(draftNotStarted());\n\t\trequire(bytes(teams[msg.sender]).length == 0);\n\t\trequire(bytes(_teamName).length != 0);\n\t\trequire (msg.value >= buyIn);\n\t\tteams[msg.sender] = _teamName;\n\t\tteamCount += 1;\n\t\treturn true;\n\n\t}\n\n\tfunction draftPlayer(uint _playerId) public returns (bool) {\n\t\trequire(draftStarted());\n\t\trequire(!draftedPlayers[_playerId]);\n\t\trequire(usersPick(msg.sender));\n\n\t\tdraftedPlayers[_playerId] = true;\n\t\tif (draftPick >= teamCount) {\n\t\t\tdraftRound += 1;\n\t\t\tdraftPick = 1;\n\t\t} else {\n\t\t\tdraftPick += 1; \n\t\t}\n\t\treturn true;\n\n\t}\n\n\tfunction () payable {\n\t\trequire (teamCount < leagueSize);\n\t\trequire(draftNotStarted());\n\t\trequire(bytes(teams[msg.sender]).length == 0);\n\t\trequire (msg.value >= buyIn);\n\t\tjoinLeague('Default');\n\t}\n\n\n}",
  "sourcePath": "/Users/alpha/ethersports/contracts/League.sol",
  "compiler": {
    "name": "solc",
    "version": "0.4.18+commit.9cf6e910.Emscripten.clang"
  },
  "schemaVersion": "1.0.1",
  "updatedAt": "2018-03-31T10:54:38.933Z"
}